:10000000020200782C7540ED75440022E540C338AB
:100010005003754401F5422274381129740C1129DA
:0F002000740111297406112922F5A0C280C28132
:0F002F00D2821147C282114722F5A0D280C2812E
:0F003E00D2821147C282114722780A79FFD9FE78
:10004D00D8FA22FD940A4004ED243122ED24302209
:0F005D0075A0001147114711181147114711479E
:0F006C0074C011291147E542C4540F11501138C7
:10007B00114711471147E542540F115011381147E1
:10008B0011471147748011291147E544540F115042
:09009B00113811471147114722E9
:080200001103110C115D80FED9
:00000001FF
