:03000000020200F9
:0F0200007544007A417930780A754000E540284E
:10020F00F542500375440175A00051C051C05145CE
:10021F0051C051C051C07480515651C0516551C029
:10022F007481515651C0518451C074C0515651C040
:10023F0051A251C080FE74385156740E515674013C
:0F024F0051567406515622F5A0C280C281D28248
:10025E0051C0C28251C022C0E0E47842E6C4540FBD
:0F026E00FF51C951C08CA0D280C281D28251C031
:10027D00C28251C0D0E022C0E0E47842E6540FFFC4
:10028D0051C951C08CA0D280C281D28251C0C282CC
:10029D0051C0D0E022C0E0E47844E6540FFF51C9CC
:1002AD0051C08CA0D280C281D28251C0C28251C0B5
:1002BD00D0E022780A79FFD9FED8FA22940A4006B6
:0B02CD00EF24370202D6EF2430FC22A1
:00000001FF
