:040000000200513277
:03000B0002025A94
:0100130032BA
:01001B0032B2
:0100230032AA
:01002B0032A2
:01003300329A
:01003B003292
:01004300328A
:03004B0002023A74
:1200AA00E4F508F509F50AF50BF50FC200C20102004E8D
:03004E000200BCF1
:2000BC0075A0005390EF5380F812026312029412028175140F90079175F0801202EB3001E9
:2000DC00FD750F00C201C29475C50110000280FB75C5803000FD7403550CF50DC20075C5E5
:2000FC00003000FD850C0EC200D294AF0D7E00AC0E7D00EC2EF508ED3FF509E508250AF52D
:20011C000AE509350BF50B050F74F6250F50B7850A82850B831204D3AC82AD83AEF0FFE4E6
:20013C00C0E0C0E074C8C0E07442C0E08C828D838EF0EF120563AC82AD83AEF0FFE58124A7
:20015C00FCF5818C828D838EF0EF1204E085820A85830B850B831204D3AC82AD83AEF0FF75
:20017C00C004C005C006C00790400075F04E7440120359AC82AD83AEF0FFE58124FCF581B1
:20019C008C828D838EF0EF1204E085820A85830B7582891202B375150A751600850A8285A2
:2001BC000B83120642AE8274302EF51375150A751600850A82850B831206A585820A858318
:2001DC000B75150A751600120642AE8274302EF51275150A751600850A82850B831206A576
:2001FC0085820A85830B75150A751600120642AE8274302EF51175150A751600850A828589
:20021C000B831206A585820A85830B75103075140490001075F0401202EB0200DA22C00708
:20023C00C0D075D000AFC4BF1002800DBF40028008BF800585C50CD200D0D0D00732758C5D
:20025C003C758AB0D20132D29443C32043C30143C310AFC374F75FF5C343C30443C3404362
:20027C00B104D2AF22758C3C758AB074F055894401F589D2A9D28C229000641203377582E7
:20029C00381202B375820E1202B37582011202B37582801202B322AF82C00712031AD0075A
:2002BC008FA0C280C281D282900005120337C282900005120337228582A0D280C281D28262
:2002DC00900005120337C28290000512033722AD82AE83AFF0E51460248D828E838FF012AD
:2002FC000626FCA3AD82AE838C82C007C006C0051202D3D005D006D007151480D82275A036
:20031C00FFC280D281C282900005120337D28230A706C282D28280F7C28222AE82AF83C33D
:1D033C00E49E74808FF063F08095F0500F7D05ED14FCFD70FA1EBEFF011F80E32292
:1007910054656D7065723A2020787878782043002E
:200359001203FCBC0003020535EF60FA30D502B2D1E583B4FF0302054BE582B4FF03020511
:200379004B258340072482400B020535248314500302054BF582EA8DF0A4A8F0EA8EF0A477
:2003990028F8E435F0F9EB8DF0A428E935F0F9E433CA8FF0A429F9EA35F0FAEBF88EF0A4B3
:2003B90029F9EA35F0FAE433FBEC8DF0A429F9EA35F0FAE43BFBE88FF0A42AFAEB35F0FB5B
:2003D900E433CCFD8EF0A42AFAEB35F0FBE43CFCED8FF0A42BFBEC35F0FC20E70312042A2A
:0303F900020514E6
:2003FC00AA82AB83A2F73392D1F5826002D2F7ACF0E58124F9F8E6FD08E6FE0886F008E664
:0E041C00A2F73392D5F5836002D2F7AFF0223B
:06008000E4787FF6D8FDD4
:20042A007804EC7011E58224F8500AF582E4C9CACBFCD8EF22EC7820058220E713D58201D1
:13044A0022C3E933F9EA33FAEB33FBEC33FCD8EA158222DF
:20005E007900E94400601B7A009007A1780175A000E493F2A308B8000205A0D9F4DAF275A0
:02007E00A0FFE1
:20045D00E515451660467A01E51525E0F515E516334012F516E5829515E583951640030A04
:20047D0080E6C3E51613F516E51513F515C3E5829515F5F0E58395164005F58385F082C3C3
:0D049D00E51613F516E51513F515DAE12245
:200086007800E84400600A790175A000E4F309D8FC7800E84400600C7900900001E4F0A378
:0400A600D8FCD9FAAF
:2004AA007A10E4FBFCE58225E0F582E58333F583EB33FBEC33FCEB9515F5F0EC951640064C
:0904CA00FCABF0438201DADD22F3
:0D04D300AC83AB827A007900748E02068142
:2004E0001206DD700AE582458345F0700122E430D112F4700BE5F0F47006E58330E701224F
:1405000090800022700AE5F07006E58320E70122907FFF222E
:20051400B98003EA13B34010EA2401FAE43BFBE43CFC50047C800582BC000EBB000BBA002B
:2005340008E4F5F0F583F58222A2D1E582138CF092F78B838A8222E4F583F58275F080F4EB
:0F055400A2D11322E4F583F58275F0C0747F22E3
:200563001203FC30D502B2D1BF0009BC000302055802054BBC0003020535E583B4FF0BE59F
:2005830082B4FF03020558020535E582B4FF0302054BC395835007247F400B020535248016
:2005A30014500302054BF582C3ED9AEE9BEF9C40111582C3EA33F9EB33FAEC33FBE433FCA4
:2005C3008005E4CCCBCAF9C08275F019C3E99DEA9EEB9FEC9400D5F002802D400EE99DF979
:2005E300EA9EFAEB9FFBEC9400FCC3B3E833F8E58233F582E58333F583C3E933F9EA33FAD9
:20060300EB33FBEC33FC80C4B3E4F938FAE43582FBE43583FCD082500405827C8012042A06
:0306230002052CA1
:0D005100758120120738E582600302004E21
:1C06260020F71430F6148883A88220F507E6A88375830022E280F7E49322E022E3
:20064200C2D5E58330E70DD2D5E4C39582F582E49583F583E51630E70BE4C39515F515E4C9
:160662009516F51612045D30D50BE4C39582F582E49583F583227E
:20067800FCABF0AA83A982749EF582C2D1EC30E716D2D1E9F42401F9EAF43400FAEBF43481
:0D06980000FBECF43400FC12042A020514EF
:2006A500C2D5E58330E70DD2D5E4C39582F582E49583F583E51630E70DB2D5E4C39515F5D6
:1806C50015E49516F5161204AA30D50BE4C39582F582E49583F58322D3
:2006DD0012073CC3749E95824039790012074E30D126E9F42401F582EAF43400F583EBF45A
:2006FD003400F5F0ECF43400700AE582458345F0700122E430E70F22EC20E71489828A83F4
:1B071D008BF02230D10AE4F582F583F5F074802274FFF582F583F5F0747F22EF
:0407380075820022A4
:12073C00AA82AB83A2F73392D1F5826002D2F7ACF022C2
:20074E006040F82582500274FFF582E824F8501ECCCBCAF9E4CC24F85014CBCAF9E4CB24B3
:20076E00F8500BCAF9E4CA24F8500379002224086010F8C3EC13FCEB13FBEA13FAE913F966
:03078E00D8F1227D
:00000001FF
