:040000000200513277
:03000B0002026787
:0100130032BA
:01001B0032B2
:0100230032AA
:01002B0032A2
:01003300329A
:01003B003292
:01004300328A
:03004B0002024767
:1200AA00E4F508F509F50AF50BF50FC200C20102004E8D
:03004E000200BCF1
:2000BC0075A0005390EF5380F81202701202A112028E75140F90079E75F0801202F83001A8
:2000DC00FD750F00C201C29475C50110000280FB75C5803000FD7403550CF50DC20075C5E5
:2000FC00003000FD850C0EC200D294AF0D7E00AC0E7D00EC2EF508ED3FF509E508250AF52D
:20011C000AE509350BF50B050F74F6250F50B7850A82850B831204E0AC82AD83AEF0FFE4D9
:20013C00C0E0C0E07420C0E07441C0E08C828D838EF0EF120570AC82AD83AEF0FFE5812443
:20015C00FCF5818C828D838EF0EF1204ED85820A85830B850B831204E0AC82AD83AEF0FF5B
:20017C00C004C005C006C00790400075F04E7440120366AC82AD83AEF0FFE58124FCF581A4
:20019C008C828D838EF0EF1204ED85820A85830B7582891202C075150A751600850A828588
:2001BC000B8312064FAE8274302EF51375150A751600850A82850B831206B285820A8583FE
:2001DC000B75150A75160012064FAE8274302EF51275150A751600850A82850B831206B25C
:2001FC0085820A85830B75150A75160012064FAE8274302EF51175150A751600850A82857C
:20021C000B831206B285820A85830B75150A75160012064FAE8274302EF51075140490009C
:20023C001075F0401202F80200DA22C007C0D075D000AFC4BF1002800DBF40028008BF80AE
:20025C000585C50CD200D0D0D00732758C3C758AB0D20132D29443C32043C30143C310AF63
:20027C00C374F75FF5C343C30443C34043B104D2AF22758C3C758AB074F055894401F58941
:20029C00D2A9D28C229000641203447582381202C075820E1202C07582011202C0758280DB
:2002BC001202C022AF82C007120327D0078FA0C280C281D282900005120344C28290000552
:2002DC00120344228582A0D280C281D282900005120344C28290000512034422AD82AE8355
:2002FC00AFF0E51460248D828E838FF0120633FCA3AD82AE838C82C007C006C0051202E089
:20031C00D005D006D007151480D82275A0FFC280D281C282900005120344D28230A706C2CE
:20033C0082D28280F7C28222AE82AF83C3E49E74808FF063F08095F0500F7D05ED14FCFDA1
:0A035C0070FA1EBEFF011F80E322AD
:10079E00566F6C746167653A20787878786D76005C
:20036600120409BC0003020542EF60FA30D502B2D1E583B4FF03020558E582B4FF030205DC
:2003860058258340072482400B0205422483145003020558F582EA8DF0A4A8F0EA8EF0A443
:2003A60028F8E435F0F9EB8DF0A428E935F0F9E433CA8FF0A429F9EA35F0FAEBF88EF0A4A6
:2003C60029F9EA35F0FAE433FBEC8DF0A429F9EA35F0FAE43BFBE88FF0A42AFAEB35F0FB4E
:2003E600E433CCFD8EF0A42AFAEB35F0FBE43CFCED8FF0A42BFBEC35F0FC20E70312043710
:03040600020521CB
:20040900AA82AB83A2F73392D1F5826002D2F7ACF0E58124F9F8E6FD08E6FE0886F008E656
:0E042900A2F73392D5F5836002D2F7AFF0222E
:06008000E4787FF6D8FDD4
:200437007804EC7011E58224F8500AF582E4C9CACBFCD8EF22EC7820058220E713D58201C4
:1304570022C3E933F9EA33FAEB33FBEC33FCD8EA158222D2
:20005E007900E94400601B7A009007AE780175A000E493F2A308B8000205A0D9F4DAF27593
:02007E00A0FFE1
:20046A00E515451660467A01E51525E0F515E516334012F516E5829515E583951640030AF7
:20048A0080E6C3E51613F516E51513F515C3E5829515F5F0E58395164005F58385F082C3B6
:0D04AA00E51613F516E51513F515DAE12238
:200086007800E84400600A790175A000E4F309D8FC7800E84400600C7900900001E4F0A378
:0400A600D8FCD9FAAF
:2004B7007A10E4FBFCE58225E0F582E58333F583EB33FBEC33FCEB9515F5F0EC951640063F
:0904D700FCABF0438201DADD22E6
:0D04E000AC83AB827A007900748E02068E28
:2004ED001206EA700AE582458345F0700122E430D112F4700BE5F0F47006E58330E7012235
:14050D0090800022700AE5F07006E58320E70122907FFF2221
:20052100B98003EA13B34010EA2401FAE43BFBE43CFC50047C800582BC000EBB000BBA001E
:2005410008E4F5F0F583F58222A2D1E582138CF092F78B838A8222E4F583F58275F080F4DE
:0F056100A2D11322E4F583F58275F0C0747F22D6
:2005700012040930D502B2D1BF0009BC0003020565020558BC0003020542E583B4FF0BE55D
:2005900082B4FF03020565020542E582B4FF03020558C395835007247F400B0205422480D5
:2005B000145003020558F582C3ED9AEE9BEF9C40111582C3EA33F9EB33FAEC33FBE433FC8A
:2005D0008005E4CCCBCAF9C08275F019C3E99DEA9EEB9FEC9400D5F002802D400EE99DF96C
:2005F000EA9EFAEB9FFBEC9400FCC3B3E833F8E58233F582E58333F583C3E933F9EA33FACC
:20061000EB33FBEC33FC80C4B3E4F938FAE43582FBE43583FCD082500405827C80120437EC
:0306300002053987
:0D005100758120120745E582600302004E14
:1C06330020F71430F6148883A88220F507E6A88375830022E280F7E49322E022D6
:20064F00C2D5E58330E70DD2D5E4C39582F582E49583F583E51630E70BE4C39515F515E4BC
:16066F009516F51612046A30D50BE4C39582F582E49583F5832264
:20068500FCABF0AA83A982749EF582C2D1EC30E716D2D1E9F42401F9EAF43400FAEBF43474
:0D06A50000FBECF43400FC120437020521C8
:2006B200C2D5E58330E70DD2D5E4C39582F582E49583F583E51630E70DB2D5E4C39515F5C9
:1806D20015E49516F5161204B730D50BE4C39582F582E49583F58322B9
:2006EA00120749C3749E95824039790012075B30D126E9F42401F582EAF43400F583EBF433
:20070A003400F5F0ECF43400700AE582458345F0700122E430E70F22EC20E71489828A83E6
:1B072A008BF02230D10AE4F582F583F5F074802274FFF582F583F5F0747F22E2
:040745007582002297
:12074900AA82AB83A2F73392D1F5826002D2F7ACF022B5
:20075B006040F82582500274FFF582E824F8501ECCCBCAF9E4CC24F85014CBCAF9E4CB24A6
:20077B00F8500BCAF9E4CA24F8500379002224086010F8C3EC13FCEB13FBEA13FAE913F959
:03079B00D8F12270
:00000001FF
